:100000000C942A000C9447000C9447000C94470071
:100010000C9447000C9447000C9447000C94470044
:100020000C9447000C9447000C9447000C94470034
:100030000C9447000C94AF000C9447000C944700BC
:100040000C9447000C9447000C9447000C94470014
:100050000C94470011241FBECFE5D8E0DEBFCDBF12
:1000600010E0A0E6B0E0E6E5F4E002C005900D92F5
:10007000A83EB107D9F720E0A8EEB0E001C01D927C
:10008000AA3EB207E1F70E9474010C9429020C9475
:10009000000081B18C7F81B982E080B9089594EA33
:1000A00096BF06B607FEFDCF91B1987F983061F4F8
:1000B00083B984E886BF06B607FEFDCF81B1887F8D
:1000C000883121F080E0089580E0089581E008956E
:1000D00083B984E886BF06B607FEFDCF81B1887F6D
:1000E000883231F081B1887F803321F481E0089536
:1000F00081E0089580E00895FC0194E896BF06B67B
:1001000007FEFDCF91B1987F983521F483B18083AC
:1001100081E0089580E0089584E986BF089594EA17
:1001200096BF06B607FEFDCF91B1987F903189F456
:100130008F5F83B984E886BF06B607FEFDCF81B125
:10014000887F803441F081B1887F883431F481E048
:10015000089580E0089581E0089580E008951F9259
:100160000F920FB60F9211242F933F934F935F93EB
:100170006F937F938F939F93AF93BF93EF93FF936F
:10018000E091E800F091E9000995FF91EF91BF91AE
:10019000AF919F918F917F916F915F914F913F911F
:1001A0002F910F900FBE0F901F90189583E389B980
:1001B00010BC88E18AB986E880BD08955F9BFECFB8
:1001C0002CB1FC01208308955D9BFECF8CB908956E
:1001D0000F931F93CF938C01C0E003C00E94E400F3
:1001E000CF5FF801EC0FF11D8081882321F08D3065
:1001F00011F08A3099F7CF911F910F910895EF92E6
:10020000FF920F931F93CF937C01C0E012C0870130
:100210000C0F111DC8010E94DE00F80180818823A7
:1002200021F08A3011F08D3019F4F801108203C0EA
:10023000CF5FCF3F61F7CF911F910F91FF90EF906C
:1002400008950E9449000895FF920F931F93CF9342
:10025000DF93C82FD62FF72E8A010E944F008F2DD3
:100260000E9468008D2F0E9468008C2F0E948F00D2
:10027000C8010E947C00C82F0E948C008C2FDF9147
:10028000CF911F910F91FF9008951F93CF93DF930C
:10029000D62F172FC42F0E944F00812F0E94680075
:1002A0008D2F0E9468008C2F0E946800C82F0E942A
:1002B0008C008C2FDF91CF911F9108950E94D60062
:1002C00008950E94FF0008950E94E80008950E948A
:1002D000E40008950E94DE0008958AE00E94E40090
:1002E0008DE00E94E4000895CF93DF93CDB7DEB791
:1002F0002F970FB6F894DEBF0FBECDBF0E945E01F0
:100300000E94210180E690E00E9464010E946D013C
:10031000CE010A960E94610162E870E0CE010A9661
:100320000E941802892B61F587E890E00E94640121
:100330000E946D018AE890E00E946401CE0103965C
:100340000E9461010E946D01CE0103960E94FA0194
:100350008C0187E890E00E9464010E946D01AE016B
:100360004E5F5F4FB80180EA0E94240180EA90E06E
:100370000E9464018A810E9467010E946D01C2CFC0
:1003800064EB70E0CE010A960E941802892B09F0F6
:10039000B9CF87E890E00E9464010E946D018AEB6A
:1003A00090E00E946401CE0103960E9461010E94C8
:1003B0006D01CE0103960E94FA018C0187E890E05E
:1003C0000E9464010E946D0181ED90E00E94640131
:1003D000CE0101960E946A010E946D014981B80117
:1003E00080EA0E9445018FED90E00E9464010E9426
:1003F0006D0188CFFC0188279927E894219120324C
:10040000E9F3293010F02E30C8F32B3241F02D32B1
:1004100039F4689404C00E942102820F911D219139
:1004200020532A30C0F31EF4909581959F4F089574
:10043000FB01DC018D91019080190110D9F3990B1A
:1004400008957AE0979F902D879F802D910D11241C
:060450000895F894FFCFAF
:10045600456E746572206120636F6D6D616E6420F8
:10046600285245414429204F522028575249544585
:10047600290052454144004F4B00456E7465722079
:10048600726561642061646472657373203A20004A
:10049600444154412052657475726E6564206973D7
:1004A600203A2000575249544500456E7465722023
:1004B60077726974652061646472657373203A208B
:1004C60000456E7465722044617461203A20004FC5
:0804D6004B2C446F6E65000021
:00000001FF
