:100000000C942A000C9434000C9434000C943400AA
:100010000C9434000C9434000C9434000C94340090
:100020000C9434000C9434000C9434000C94340080
:100030000C9434000C9434000C9434000C94340070
:100040000C9434000C9434000C9434000C94340060
:100050000C94340011241FBECFE5D8E0DEBFCDBF25
:100060000E946F000C947A000C94000081B18C7F88
:1000700081B982E080B9089594EA96BF06B607FE7A
:10008000FDCF91B1987F983061F483B984E886BF41
:1000900006B607FEFDCF81B1887F883121F080E070
:1000A000089580E0089581E0089583B984E886BFCB
:1000B00006B607FEFDCF81B1887F883231F081B16D
:1000C000887F803321F481E0089581E0089580E005
:1000D000089584E986BF06B604FEFDCF08950E9408
:1000E000360080E10E943C0086E80E9455000E9494
:0800F0006900F7CFF894FFCF7F
:00000001FF
