:100000000C942A000C9447000C9447000C94470071
:100010000C9447000C9447000C9447000C94470044
:100020000C9447000C9447000C9447000C94470034
:100030000C9447000C9437010C9447000C94470033
:100040000C9447000C9447000C9447000C94470014
:100050000C94470011241FBECFE5D8E0DEBFCDBF12
:1000600010E0A0E6B0E0E0E8F5E002C005900D92F7
:10007000AA3BB107D9F720E0AAEBB0E001C01D927E
:10008000AC3BB207E1F70E941C020C94BE020C9438
:100090000000FC019081923431F118F4913439F070
:1000A00008959334E1F1943409F455C008958281A0
:1000B000813061F42AB381E090E0018002C0880FB2
:1000C000991F0A94E2F7822B8ABB08952AB381E034
:1000D00090E0018002C0880F991F0A94E2F7809592
:1000E00082238ABB08958281813061F427B381E045
:1000F00090E0018002C0880F991F0A94E2F7822BDA
:1001000087BB089527B381E090E0018002C0880F8B
:10011000991F0A94E2F78095822387BB0895828114
:10012000813061F424B381E090E0018002C0880F47
:10013000991F0A94E2F7822B84BB089524B381E0CF
:1001400090E0018002C0880F991F0A94E2F7809521
:10015000822384BB08958281813061F421B381E0E0
:1001600090E0018002C0880F991F0A94E2F7822B69
:1001700081BB089521B381E090E0018002C0880F27
:10018000991F0A94E2F78095822381BB08958234F7
:1001900019F118F4813439F008958334B1F18434BD
:1001A00009F44CC00895413059F42BB381E090E03C
:1001B00002C0880F991F6A95E2F7822B8BBB0895C6
:1001C0002BB381E090E002C0880F991F6A95E2F797
:1001D000809582238BBB0895413059F428B381E088
:1001E00090E002C0880F991F6A95E2F7822B88BBC6
:1001F000089528B381E090E002C0880F991F6A95A6
:10020000E2F78095822388BB0895413059F425B3E5
:1002100081E090E002C0880F991F6A95E2F7822B77
:1002200085BB089525B381E090E002C0880F991F37
:100230006A95E2F78095822385BB0895413059F491
:1002400022B381E090E002C0880F991F6A95E2F71F
:10025000822B82BB089522B381E090E002C0880F18
:10026000991F6A95E2F78095822382BB08951F92B9
:100270000F920FB60F9211242F933F934F935F93DA
:100280006F937F938F939F93AF93BF93EF93FF935E
:10029000E091BA00F091BB00309709F00995FF9109
:1002A000EF91BF91AF919F918F917F916F915F91EE
:1002B0004F913F912F910F900FBE0F901F90189567
:1002C00083E389B910BC88E18AB986E880BD0895C6
:1002D0005F9BFECF2CB1FC01208308955D9BFECF78
:1002E0008CB908950F931F93CF938C01C0E003C086
:1002F0000E946E01CF5FF801EC0FF11D8081882311
:1003000021F08D3011F08A3099F7CF911F910F9124
:100310000895EF92FF920F931F93CF937C01C0E05B
:1003200017C087010C0F111DC8010E946801F80158
:100330008081882321F08A3011F08D3019F4F80182
:10034000108208C0CE3F19F4F801108203C0CF5FBD
:10035000CF3F39F7CF911F910F91FF90EF90089504
:10036000813059F028F0823069F0833081F00895AF
:1003700089E690E00E944900089586E690E00E9498
:100380004900089583E690E00E944900089580E6C0
:1003900090E00E9449000895813071F028F0823089
:1003A00099F08330C9F00895E9E6F0E041E0618119
:1003B00080810E94C7000895E6E6F0E041E0618197
:1003C00080810E94C7000895E3E6F0E041E061818A
:1003D00080810E94C7000895E0E6F0E041E061817D
:1003E00080810E94C7000895813071F028F082302A
:1003F00099F08330C9F00895E9E6F0E040E06181CA
:1004000080810E94C7000895E6E6F0E040E0618147
:1004100080810E94C7000895E3E6F0E040E061813A
:1004200080810E94C7000895E0E6F0E040E061812D
:1004300080810E94C7000895CF93DF93CDB7DEB7C8
:10044000CF5FD1090FB6F894DEBF0FBECDBF0E94BB
:10045000600180E00E94B00181E00E94B00182E072
:100460000E94B0018CE690E00E947201CE010196DC
:100470000E948901CE0101960E9472016FE770E02F
:10048000CE0101960E94B502892BA1F480E00E9462
:10049000CC0181E00E94F40182E00E94F4018AE034
:1004A0000E946E018DE00E946E0185E890E00E943E
:1004B000720154C061E970E0CE0101960E94B5025C
:1004C000892BA1F481E00E94CC0180E00E94F4011C
:1004D00082E00E94F4018AE00E946E018DE00E9499
:1004E0006E0186E990E00E94720138C062EA70E015
:1004F000CE0101960E94B502892BA1F482E00E94F0
:10050000CC0181E00E94F40180E00E94F4018AE0C5
:100510000E946E018DE00E946E0187EA90E00E94C9
:1005200072011CC063EB70E0CE0101960E94B5021F
:10053000892B59F48AE00E946E018DE00E946E01C1
:1005400086EB90E00E94720109C082E00E94F401F3
:1005500081E00E94F40180E00E94F4018AE00E94A0
:100560006E018DE00E946E017DCFFB01DC018D915B
:10057000019080190110D9F3990B0895F894FFCFD9
:10058000420701420601420501420401454E54451D
:1005900052204120434F4D4D414E44203A200053BC
:1005A00054415254004C45442030204953204F4E72
:1005B0000057414954004C45442031204953204FB5
:1005C0004E0053544F50004C454420322049532094
:0A05D0004F4E004154004F4B000055
:00000001FF
