:100000000C942A000C9447000C9447000C94470071
:100010000C9447000C9447000C9447000C94470044
:100020000C9447000C9447000C9447000C94470034
:100030000C9447000C947C000C9447000C944700EF
:100040000C9447000C9447000C9447000C94470014
:100050000C94470011241FBECFE5D8E0DEBFCDBF12
:1000600010E0A0E6B0E0E0ECF1E002C005900D92F7
:10007000A036B107D9F720E0A0E6B0E001C01D929C
:10008000A236B207E1F70E94C6000C94DE000C9481
:10009000000087B3806487BB87B38F7487BB80E41D
:1000A0008DB908952FEF2FB9779BFECF2FB1FC01AB
:1000B00020830895EF92FF920F931F93CF937C01BB
:1000C000C0E012C087010C0F111DC8010E94520030
:1000D000F8018081882321F08A3011F08D3019F4E5
:1000E000F801108203C0CF5FCF3F61F7CF911F911E
:1000F0000F91FF90EF9008951F920F920FB60F92FD
:1001000011242F933F934F935F936F937F938F931C
:100110009F93AF93BF93EF93FF93E0916000F091B3
:1001200061000995FF91EF91BF91AF919F918F91E0
:100130007F916F915F914F913F912F910F900FBEE3
:100140000F901F90189583E389B910BC88E98AB98C
:1001500086E880BD08955D9BFECF8CB908950F930E
:100160001F93CF938C01C0E003C00E94AB00CF5F10
:10017000F801EC0FF11D8081882321F08D3011F002
:100180008A3099F7CF911F910F910895CF93DF9304
:10019000CDB7DEB7CF5FD1090FB6F894DEBF0FBE83
:1001A000CDBF0E9449000E94A300CE0101960E948B
:1001B0005A00CE0101960E94AF00F7CFF894FFCF0E
:00000001FF
