:100000000C942A000C9434000C9434000C943400AA
:100010000C9434000C9434000C9434000C94340090
:100020000C9434000C9434000C9434000C94340080
:100030000C9434000C9434000C9434000C94340070
:100040000C9434000C9434000C9434000C94340060
:100050000C94340011241FBECFE5D8E0DEBFCDBF25
:100060000E947A000C9489000C94000082E080B910
:1000700081B18C7F81B9089594EA96BF06B607FED8
:10008000FDCF91B1987F9830E1F783B984E886BFBE
:1000900006B607FEFDCF81B1887F8831E1F708956C
:1000A00083B984E886BF06B607FEFDCF81B1887F9D
:1000B0008832E1F7089584E986BF06B607FEFDCFD2
:1000C0000895CF93DF9300D01F92CDB7DEB71A8289
:1000D000198229813A812817390730F41B828B81D4
:1000E0008B818F5F8B83FBCF0F900F900F90DF91F1
:1000F000CF9108950E94360080E10E943C0080E08C
:100100000E9450000E945B0088EE93E00E94610014
:06011000F3CFF894FFCFCD
:00000001FF
