S0140000537072696E74365F434F4D4D2E73726563CF
S11300000C942A000C943F000C943F000C943F0085
S11300100C943F000C943F000C943F000C943F0060
S11300200C943F000C943F000C943F000C943F0050
S11300300C943F000C943F000C943F000C943F0040
S11300400C943F000C943F000C943F000C943F0030
S11300500C943F0011241FBECFE5D8E0DEBFCDBF16
S113006010E0A0E6B0E0ECEDF1E002C005900D92E6
S1130070A838B107D9F70E948C000C94EC000C94BA
S1130080000083E389B910BC88E18AB986E880BDA1
S113009008955F9BFECF2CB1FC01208308955D9BE6
S11300A0FECF8CB908950F931F93CF938C01C0E0BA
S11300B003C00E944F00CF5FF801EC0FF11D808157
S11300C0882321F08D3011F08A3099F7CF911F9158
S11300D00F910895EF92FF920F931F93CF937C019A
S11300E0C0E012C087010C0F111DC8010E94490015
S11300F0F8018081882321F08A3011F08D3019F4C1
S1130100F801108203C0CF5FCF3F61F7CF911F91F9
S11301100F91FF90EF900895CF93DF93CDB7DEB7A3
S1130120CF5FD1090FB6F894DEBF0FBECDBF0E94DA
S1130130410080E787BB80E690E00E945300CE0137
S113014001960E946A00CE0101960E94530062E764
S113015070E0CE0101960E94E300892B19F480E13E
S113016088BB2AC068E770E0CE0101960E94E300D4
S1130170892B19F480E288BB1FC06DE770E0CE01C3
S113018001960E94E300892B19F480E488BB14C013
S113019062E870E0CE0101960E94E300892B59F4D5
S11301A08AE00E944F008DE00E944F0085E890E0B5
S11301B00E94530001C018BA8AE00E944F008DE0EB
S11301C00E944F00B8CFFB01DC018D910190801992
S10F01D00110D9F3990B0895F894FFCFA7
S11301DC454E544552204120535452494E47203ADF
S11301EC2000535441525400574149540053544F26
S10B01FC50004154004F4B0078
S9030000FC
