S0140000537072696E74365F434F4D4D2E73726563CF
S11300000C942A000C9434000C9434000C943400A6
S11300100C9434000C9434000C9434000C9434008C
S11300200C9434000C9434000C9434000C9434007C
S11300300C9434000C9434000C9434000C9434006C
S11300400C9434000C9434000C9434000C9434005C
S11300500C94340011241FBECFE5D8E0DEBFCDBF21
S11300600E944D000C9453000C94000087B3806BE5
S113007087BB87B38F7B87BB88B3806188BB82E5EE
S11300808DB9089598B39F7E98BB8FB9779BFECFA7
S11300908FB188B3806188BB08950E94360088EFD1
S10D00A00E944200FCCFF894FFCF49
S9030000FC
