:100000000C942A000C943F000C943F000C943F0089
:100010000C943F000C943F000C943F000C943F0064
:100020000C943F000C943F000C943F000C943F0054
:100030000C943F000C943F000C943F000C943F0044
:100040000C943F000C943F000C943F000C943F0034
:100050000C943F0011241FBECFE5D8E0DEBFCDBF1A
:1000600010E0A0E6B0E0E4E1F5E002C005900D92FA
:10007000AA3BB107D9F70E94E6010C9488020C94C0
:100080000000FC019081923431F118F4913439F080
:1000900008959334E1F1943409F455C008958281B0
:1000A000813061F42AB381E090E0018002C0880FC2
:1000B000991F0A94E2F7822B8ABB08952AB381E044
:1000C00090E0018002C0880F991F0A94E2F78095A2
:1000D00082238ABB08958281813061F427B381E055
:1000E00090E0018002C0880F991F0A94E2F7822BEA
:1000F00087BB089527B381E090E0018002C0880F9C
:10010000991F0A94E2F78095822387BB0895828124
:10011000813061F424B381E090E0018002C0880F57
:10012000991F0A94E2F7822B84BB089524B381E0DF
:1001300090E0018002C0880F991F0A94E2F7809531
:10014000822384BB08958281813061F421B381E0F0
:1001500090E0018002C0880F991F0A94E2F7822B79
:1001600081BB089521B381E090E0018002C0880F37
:10017000991F0A94E2F78095822381BB0895823407
:1001800019F118F4813439F008958334B1F18434CD
:1001900009F44CC00895413059F42BB381E090E04C
:1001A00002C0880F991F6A95E2F7822B8BBB0895D6
:1001B0002BB381E090E002C0880F991F6A95E2F7A7
:1001C000809582238BBB0895413059F428B381E098
:1001D00090E002C0880F991F6A95E2F7822B88BBD6
:1001E000089528B381E090E002C0880F991F6A95B6
:1001F000E2F78095822388BB0895413059F425B3F6
:1002000081E090E002C0880F991F6A95E2F7822B87
:1002100085BB089525B381E090E002C0880F991F47
:100220006A95E2F78095822385BB0895413059F4A1
:1002300022B381E090E002C0880F991F6A95E2F72F
:10024000822B82BB089522B381E090E002C0880F28
:10025000991F6A95E2F78095822382BB089583E314
:1002600089B910BC88E18AB986E880BD08955F9B92
:10027000FECF2CB1FC01208308955D9BFECF8CB98D
:1002800008950F931F93CF938C01C0E003C00E9489
:100290003D01CF5FF801EC0FF11D8081882321F033
:1002A0008D3011F08A3099F7CF911F910F910895F9
:1002B000EF92FF920F931F93CF937C01C0E012C087
:1002C00087010C0F111DC8010E943701F8018081C0
:1002D000882321F08A3011F08D3019F4F801108252
:1002E00003C0CF5FCF3F61F7CF911F910F91FF9078
:1002F000EF900895813059F028F0823069F0833012
:1003000081F0089589E690E00E944100089586E614
:1003100090E00E944100089583E690E00E94410031
:10032000089580E690E00E9441000895813071F0C8
:1003300028F0823099F08330C9F00895E9E6F0E0C2
:1003400041E0618180810E94BF000895E6E6F0E00F
:1003500041E0618180810E94BF000895E3E6F0E002
:1003600041E0618180810E94BF000895E0E6F0E0F5
:1003700041E0618180810E94BF000895813071F069
:1003800028F0823099F08330C9F00895E9E6F0E072
:1003900040E0618180810E94BF000895E6E6F0E0C0
:1003A00040E0618180810E94BF000895E3E6F0E0B3
:1003B00040E0618180810E94BF000895E0E6F0E0A6
:1003C00040E0618180810E94BF000895CF93DF9358
:1003D000CDB7DEB7CF5FD1090FB6F894DEBF0FBE41
:1003E000CDBF0E942F0180E00E947A0181E00E942F
:1003F0007A0182E00E947A018CE690E00E9441013D
:10040000CE0101960E945801CE0101960E94410141
:100410006FE770E0CE0101960E947F02892BA1F464
:1004200080E00E94960181E00E94BE0182E00E946D
:10043000BE018AE00E943D018DE00E943D0185E8F9
:1004400090E00E94410154C061E970E0CE01019644
:100450000E947F02892BA1F481E00E94960180E036
:100460000E94BE0182E00E94BE018AE00E943D011E
:100470008DE00E943D0186E990E00E94410138C074
:1004800062EA70E0CE0101960E947F02892BA1F4FE
:1004900082E00E94960181E00E94BE0180E00E94FD
:1004A000BE018AE00E943D018DE00E943D0187EA85
:1004B00090E00E9441011CC063EB70E0CE01019608
:1004C0000E947F02892B59F48AE00E943D018DE051
:1004D0000E943D0186EB90E00E94410109C082E04C
:1004E0000E94BE0181E00E94BE0180E00E94BE0128
:1004F0008AE00E943D018DE00E943D017DCFFB011D
:10050000DC018D91019080190110D9F3990B0895A8
:04051000F894FFCF8D
:10051400420701420601420501420401454E544589
:1005240052204120434F4D4D414E44203A20005328
:1005340054415254004C45442030204953204F4EDE
:100544000057414954004C45442031204953204F21
:100554004E0053544F50004C454420322049532000
:0A0564004F4E004154004F4B0000C1
:00000001FF
