:100000000C942A000C9434000C9434000C943400AA
:100010000C9434000C9434000C9434000C94340090
:100020000C9434000C9434000C9434000C94340080
:100030000C9434000C9434000C9434000C94340070
:100040000C9434000C9434000C9434000C94340060
:100050000C94340011241FBECFE5D8E0DEBFCDBF25
:100060000E9448000C9457000C94000083E389B967
:1000700010BC88E18AB986E880BD08955F9BFECFF9
:100080002CB1FC01208308955D9BFECF8CB90895AF
:10009000CF93DF931F92CDB7DEB70E943600CE011B
:1000A00001960E943E0089810E944400F8CFF89496
:0200B000FFCF80
:00000001FF
