S0140000537072696E74365F434F4D4D2E73726563CF
S11300000C942A000C9447000C9447000C9447006D
S11300100C9447000C9447000C9447000C94470040
S11300200C9447000C9447000C9447000C94470030
S11300300C9447000C94AF000C9447000C944700B8
S11300400C9447000C9447000C9447000C94470010
S11300500C94470011241FBECFE5D8E0DEBFCDBF0E
S113006010E0A0E6B0E0E8E7F4E002C005900D92ED
S1130070A03EB107D9F720E0A0EEB0E001C01D9288
S1130080A23EB207E1F70E9474010C943A020C9468
S1130090000081B18C7F81B982E080B9089594EA2F
S11300A096BF06B607FEFDCF91B1987F983061F4F4
S11300B083B984E886BF06B607FEFDCF81B1887F89
S11300C0883121F080E0089580E0089581E008956A
S11300D083B984E886BF06B607FEFDCF81B1887F69
S11300E0883231F081B1887F803321F481E0089532
S11300F081E0089580E00895FC0194E896BF06B677
S113010007FEFDCF91B1987F983521F483B18083A8
S113011081E0089580E0089584E986BF089594EA13
S113012096BF06B607FEFDCF91B1987F903189F452
S11301308F5F83B984E886BF06B607FEFDCF81B121
S1130140887F803441F081B1887F883431F481E044
S1130150089580E0089581E0089580E008951F9255
S11301600F920FB60F9211242F933F934F935F93E7
S11301706F937F938F939F93AF93BF93EF93FF936B
S1130180E091E000F091E1000995FF91EF91BF91BA
S1130190AF919F918F917F916F915F914F913F911B
S11301A02F910F900FBE0F901F90189583E389B97C
S11301B010BC88E18AB986E880BD08955F9BFECFB4
S11301C02CB1FC01208308955D9BFECF8CB908956A
S11301D00F931F93CF938C01C0E003C00E94E400EF
S11301E0CF5FF801EC0FF11D8081882321F08D3061
S11301F011F08A3099F7CF911F910F910895EF92E2
S1130200FF920F931F93CF937C01C0E012C087012C
S11302100C0F111DC8010E94DE00F80180818823A3
S113022021F08A3011F08D3019F4F801108203C0E6
S1130230CF5FCF3F61F7CF911F910F91FF90EF9068
S113024008950E9449000895FF920F931F93CF933E
S1130250DF93C82FD62FF72E8A010E944F008F2DCF
S11302600E9468008D2F0E9468008C2F0E948F00CE
S1130270C8010E947C00C82F0E948C008C2FDF9143
S1130280CF911F910F91FF9008951F93CF93DF9308
S1130290D62F172FC42F0E944F00812F0E94680071
S11302A08D2F0E9468008C2F0E946800C82F0E9426
S11302B08C008C2FDF91CF911F9108950E94D6005E
S11302C008950E94FF0008950E94E80008950E9486
S11302D0E40008950E94DE0008958AE00E94E4008C
S11302E08DE00E94E4000895CF93DF93CDB7DEB78D
S11302F02F970FB6F894DEBF0FBECDBF0E945E01EC
S11303000E94210180E690E00E9464010E946D0138
S1130310CE010A960E94610162E870E0CE010A965D
S11303200E942902892BA1F58EE990E00E946401C4
S11303300E946D0187E890E00E946401CE0103965B
S11303400E9461010E946D01CE0103960E940B027E
S1130350AE014E5F5F4FBC0180EA0E94240181110F
S113036007C08DE990E00E9464010E946D0106C0FF
S11303708EE990E00E9464010E946D0181EA90E0A0
S11303800E9464018A810E9467010E946D01BACFB4
S113039065EB70E0CE010A960E942902892B09F0D0
S11303A0B1CF8EE990E00E9464010E946D018BEB55
S11303B090E00E946401CE0103960E9461010E94B4
S11303C06D01CE0103960E940B028C018EE990E030
S11303D00E9464010E946D0182ED90E00E9464011C
S11303E0CE0101960E946A010E946D014981B80103
S11303F080EA0E944501811107C08DE990E00E94C6
S113040064010E946D017ECF8EE990E00E94640138
S11304100E946D0177CFFC0188279927E8942191E8
S11304202032E9F3293010F02E30C8F32B3241F09A
S11304302D3239F4689404C00E943202820F911D57
S1130440219120532A30C0F31EF4909581959F4F3B
S11304500895FB01DC018D91019080190110D9F3FD
S1130460990B08957AE0979F902D879F802D910D89
S10B047011240895F894FFCF54
S1130478456E746572206120636F6D6D616E6420D2
S1130488285245414429204F52202857524954455F
S113049829005245414400456E74657220726561B5
S11304A8642061646472657373203A20004E4F4B74
S11304B800444154412052657475726E6564206924
S11304C873203A2000575249544500456E746572AA
S11304D82077726974652061646472657373203A65
S11304E82000456E7465722044617461203A2000CE
S9030000FC
